:100000000C9435010C9466010C9466010C94660105
:100010000C9466010C9466010C9466010C946601C4
:100020000C9466010C9466010C9466010C946601B4
:100030000C9466010C9466010C9466010C946601A4
:100040000C9466010C9466010C9466010C94660194
:100050000C9466010C9466010C9466010C945D038B
:100060000C9466010C94D1030C94A7030C946601C4
:100070000C9466010C9466010C9466010C94660164
:100080000C9466010C9466010C9466010C94660154
:100090000C9466010C9466010C9466010C94660144
:1000A0000C9466010C9466010C9466010C94660134
:1000B0000C9466010C9466010C9466010C94660124
:1000C0000C9466010C9466010C9466010C94660114
:1000D0000C9466010C9466010C9466010C94660104
:1000E0000C9466010C94E3020C94C8020C94A401D5
:1000F0000C944B050C94C0020C944B020C94CC0253
:100100000C94FE010C94C6010C9495010C94F5021C
:100110000C94FB020C94D5020C94C4020C94B8010C
:100120000C94CF020C94F1020C94BA020C94680166
:100130000C94ED020C94D9020C94FA020C94DF0298
:100140000C94FF020C94E702000021002400270019
:100150002A002D00300033000101000004010701D6
:100160000A01000020002300260029002C002F0097
:100170003200000100000301060109010000220015
:10018000250028002B002E00310034000201000061
:10019000050108010B010505050507050808080804
:1001A000020202020A0A080804040404010101010F
:1001B000010101010303030303030303040707070A
:1001C0000C0C0C0C0C0C0C0C0202020206060606AF
:1001D000060606060B0B0B0B0B0B0B0B010210207C
:1001E000200808102040102040800201020108046D
:1001F0000201010204081020408080402010080401
:100200000201800402018040201008040201080459
:10021000020101020408102040800102040810209D
:10022000408000000A0B02090C0D0E0807030401B0
:1002300000000000000000000000000000000000BE
:10024000000000000000000000000000000012118B
:10025000100000000000000000000000000000008E
:1002600000000000000000004B0511241FBECFEF6E
:10027000D1E2DEBFCDBF00E00CBF12E0A0E0B2E0F3
:10028000E8E4FBE000E00BBF02C007900D92A6314E
:10029000B107D9F722E0A6E1B2E001C01D92AC3B64
:1002A000B207E1F711E0C5E3D1E000E006C0219715
:1002B0000109802FFE010E949A05C433D10780E016
:1002C0000807A9F70E9407040C94A2050C940000EB
:1002D000AF92BF92CF92DF92EF92FF920F931F9354
:1002E000CF93DF936C017B018B01040F151FEB0192
:1002F0005E01AE18BF08C017D10759F06991D60149
:10030000ED91FC910190F081E02DC6011995892BAA
:1003100079F7C501DF91CF911F910F91FF90EF9079
:10032000DF90CF90BF90AF900895FC01538D448D26
:10033000252F30E0842F90E0821B930B541710F090
:10034000CF96089501970895FC01918D828D98179D
:1003500061F0A28DAE0FBF2FB11D5D968C91928D75
:100360009F5F9F73928F90E008958FEF9FEF0895A6
:10037000FC01918D828D981731F0828DE80FF11D6F
:10038000858D90E008958FEF9FEF0895FC01918D8A
:10039000228D892F90E0805C9F4F821B91098F7383
:1003A0009927089586E192E00E94C60121E0892BF9
:1003B00009F420E0822F0895FC01A48DA80FB92F25
:1003C000B11DA35ABF4F2C91848D90E001968F737D
:1003D0009927848FA689B7892C93A089B1898C919C
:1003E000837080648C93938D848D981306C00288EB
:1003F000F389E02D80818F7D80830895EF92FF92B5
:100400000F931F93CF93DF93EC0181E0888F9B8D37
:100410008C8D98131AC0E889F989808185FF15C0F1
:100420009FB7F894EE89FF896083E889F989808114
:100430008370806480839FBF81E090E0DF91CF91E3
:100440001F910F91FF90EF900895F62E0B8D10E005
:100450000F5F1F4F0F731127E02E8C8D8E110CC074
:100460000FB607FCFACFE889F989808185FFF5CFBF
:10047000CE010E94DC01F1CFEB8DEC0FFD2FF11DC1
:10048000E35AFF4FF0829FB7F8940B8FEA89FB89FC
:1004900080818062CFCFCF93DF93EC01888D88235A
:1004A000B9F0AA89BB89E889F9898C9185FD03C0D7
:1004B000808186FD0DC00FB607FCF7CF8C9185FFBC
:1004C000F2CF808185FFEDCFCE010E94DC01E9CF24
:1004D000DF91CF91089580E090E0892B29F00E9470
:1004E000D20181110E94000080E090E0892B49F048
:1004F00080E090E0892B29F00E94000081110E9489
:10050000000080E090E0892B49F080E090E0892BAA
:1005100029F00E94000081110E94000080E090E01C
:10052000892B49F080E090E0892B29F00E9400009F
:1005300081110C94000008958150823108F05AC056
:10054000E82FF0E08827E855FD4F8F4F0C949A056F
:10055000C802CC02BA02C002C402FA02CF02D5021B
:10056000D902DF02E302E702ED02F102FA02F5022C
:10057000FB02FF02809180008F77809380000895B6
:10058000809180008F7DF9CF80918000877FF5CFAB
:1005900084B58F7784BD089584B58F7DFBCF80911E
:1005A000B0008F778093B00008958091B0008F7D68
:1005B000F9CF809190008F7780939000089580917B
:1005C00090008F7DF9CF80919000877FF5CF80914B
:1005D000A0008F778093A00008958091A0008F7D68
:1005E000F9CF8091A000877FF5CF809120018F7790
:1005F000809320010895809120018F7DF9CF809113
:100600002001877FF5CFCF93DF93282F30E0F901CA
:10061000EE5DFD4F8491F901E452FE4FD491F90152
:10062000EA56FE4FC491CC23A1F081110E949C0296
:10063000EC2FF0E0EE0FFF1FEE59FE4FA591B491A5
:10064000EC91ED2381E090E009F480E0DF91CF911F
:10065000089580E090E0FACFCF93DF9390E0FC0123
:10066000E452FE4F24918A569E4FFC0184918823C8
:10067000D1F090E0880F991FFC01E85BFE4FA59137
:10068000B491FC01E458FE4FC591D491623071F4ED
:100690009FB7F8943C91822F809583238C93E881B7
:1006A0002E2B28839FBFDF91CF9108958FB7F894A9
:1006B000EC912E2B2C938FBFF6CF1F920F920FB67B
:1006C0000F9211242F933F938F939F93AF93BF93D8
:1006D0008091B8029091B902A091BA02B091BB0288
:1006E0003091B70223E0230F2D3758F50196A11D55
:1006F000B11D2093B7028093B8029093B902A093E2
:10070000BA02B093BB028091B3029091B402A0915F
:10071000B502B091B6020196A11DB11D8093B3023E
:100720009093B402A093B502B093B602BF91AF917B
:100730009F918F913F912F910F900FBE0F901F901F
:10074000189526E8230F0296A11DB11DD2CF1F9246
:100750000F920FB60F9211240BB60F922F933F9367
:100760004F935F936F937F938F939F93AF93BF93B9
:10077000EF93FF9386E192E00E94DC01FF91EF91FD
:10078000BF91AF919F918F917F916F915F914F91A9
:100790003F912F910F900BBE0F900FBE0F901F90A7
:1007A00018951F920F920FB60F9211240BB60F924D
:1007B0002F938F939F93EF93FF93E0912602F091F5
:1007C00027028081E0912C02F0912D0282FD1DC054
:1007D000908180912F028F5F8F732091300282175A
:1007E00041F0E0912F02F0E0EA5EFD4F958F80939B
:1007F0002F02FF91EF919F918F912F910F900BBE40
:100800000F900FBE0F901F9018958081F2CFCF935D
:10081000DF93CDB7DEB7A1970FB6F894DEBF0FBE5A
:10082000CDBF789484B5826084BD84B5816084BD79
:1008300085B5826085BD85B5816085BD80916E007E
:10084000816080936E0010928100809181008260AF
:1008500080938100809181008160809381008091EC
:1008600080008160809380008091B10084608093DB
:10087000B1008091B00081608093B00080919100C0
:1008800082608093910080919100816080939100BB
:10089000809190008160809390008091A10082609F
:1008A0008093A1008091A10081608093A10080913C
:1008B000A00081608093A0008091210182608093DC
:1008C000210180912101816080932101809120018B
:1008D00081608093200180917A00846080937A0007
:1008E00080917A00826080937A0080917A008160A2
:1008F00080937A0080917A00806880937A001092C9
:10090000C10061E08BE00E942C0361E08CE00E945A
:100910002C0361E08DE00E942C0362E082E00E94E3
:100920002C03E0912602F091270282E08083E0917F
:100930002202F09123021082E0912402F09125021C
:100940008FEC808310922E02E0912A02F0912B020C
:1009500086E08083E0912802F09129028081806105
:100960008083E0912802F091290280818860808351
:10097000E0912802F0912902808180688083E091D3
:100980002802F091290280818F7D80839AE0492E90
:10099000512C612C712C2DE2E22E22E0F22E37EE4A
:1009A000C32E31E0D32E41EA242E41E0342E82E0E2
:1009B0000E9403034C01990FAA08BB08B7FE55C05B
:1009C0006DE286E192E00E94FE0122273327A90111
:1009D000281939094A095B0919A28E010F5D1F4FB9
:1009E000CA01B901A30192010E947805605DF80176
:1009F00062938F01211531054105510589F70115D4
:100A0000110561F001900020E9F73197AF01401B1B
:100A1000510BB80186E192E00E94680142E050E08B
:100A200062E172E086E192E00E94680182E00E9449
:100A30000303F7018491F6011491F101049100235D
:100A400089F081110E949C02E02FF0E0EE0FFF1F61
:100A5000E458FE4FA591B4918FB7F8949C91192B4F
:100A60001C938FBF0E946B02A2CFA501940119A213
:100A70008E010F5D1F4FCA01B901A30192010E94AF
:100A80007805605DF80162938F01211531054105FC
:100A9000510589F7B4CFE6E1F2E01382128288EEC5
:100AA00093E0A0E0B0E084839583A683B78384E0DD
:100AB00092E09183808385EC90E09587848784EC35
:100AC00090E09787868780EC90E0918B808B81EC1B
:100AD00090E0938B828B82EC90E0958B848B86ECFC
:100AE00090E0978B868B118E128E138E148E089544
:100AF000A1E21A2EAA1BBB1BFD010DC0AA1FBB1F22
:100B0000EE1FFF1FA217B307E407F50720F0A21B93
:100B1000B30BE40BF50B661F771F881F991F1A9400
:100B200069F760957095809590959B01AC01BD012A
:100B3000CF010895EE0FFF1F881F8BBF0790F6911E
:080B4000E02D1994F894FFCF99
:100B480000000000FE01680195014B02C601A401E6
:060B5800B8010D0A0000C7
:00000001FF
